:020000041004E6
:1000000000600020790B0410990A0410A30A041060
:10001000AA5555AA000000000000000000000000E2
:10002000000000000000000000000000AD0A041005
:100030000000000000000000B30A0410BF0A041012
:10004000C50A0410E30A04100000000000000000CC
:10005000DD0A0410D70A0410CB0A0410D10A0410D8
:100060000000000000000000000000000000000090
:1000700000000000E90A0410EF0A0410F50A041059
:1000800000000000FB0A0410010B0410070B041011
:100090000D0B0410130B0410190B04101F0B04108C
:1000A00010B503680124A3430360C1604260016886
:1000B00001220A43026010BD08206D4908806D4886
:1000C0006D4908608020C0056C49C1626C490163BC
:1000D000C1686C4A0A40C260416880220A4342609B
:1000E000016880229143016067480168674A0A40BD
:1000F000872111430160416806220A434260644837
:100100004169644A1140644B0B4343616349C161D7
:1001100003681A40624B1343036081600168012247
:100120000A4302605F48017805220A430270704763
:100130001CB508204E4908805B490191410301AB81
:100140009BB20B43594A136014680C40FCD1584CC5
:100150000194136013680B40FCD15B1C554C009458
:100160006C46A4B20C43146014680C40FCD1009C93
:10017000240C052C02D0DCB2642CEEDB4E493E4A46
:1001800011604E494A6A4E4B13404E4A1A434A6226
:100190000A684D4B13400B604C4908812C200873B2
:1001A000087C602202430A740878702202430A70B5
:1001B000087EC72202400A764869012202434A614A
:1001C00043480168334A0A404249114301604249A9
:1001D00081604248017802220A43027013BDFFB5D4
:1001E00004000D0010003E4909683E4A914239D191
:1001F00001008207920F01D0091D891A3A4A002393
:10020000D36000266B460394019500E0361D8E42B4
:100210002AD20024019D3719874201D2EF5D00E008
:10022000FF271F55641C042CF5DB01953F24146146
:10023000039CA519AC03240C94611F785C782402FC
:100240003C439F783F042743DC7824063C431464F6
:10025000332717601769FF07FCD52D680295029DAB
:10026000A542D3D0012000E0002004B0F0BD000082
:100270000400104073C001002000904004440000BE
:100280001041000072F7FFFF0000404020009FFF78
:10029000580000A00F80FFFF9010000008004040B1
:1002A000A020000024004040023A44000C00004816
:1002B00002341B00824300006BC001000C000040B0
:1002C000F00FFFFF01100000FFF6FFFF1C003040A1
:1002D0001C0000A09020000000003040480030408A
:1002E00014000020CCBCECFC00001040F2B5FFB0C4
:1002F00095B000216A4611701172117351815173CA
:1003000007910F9101215172049194A909780D91DF
:1003100092490D9A895C0C9152A90C9A8918019105
:100320000421019A1170FF21019A51700321019A51
:1003300091700121019AD1700021019A11710199E6
:100340004871062005900120694608728448854955
:1003500041180B9184494018069052A80A9010A8A1
:1003600009909DE2072072E294A80078002803D14A
:100370000898008B9028FBD1BFF34F8FBC48BD4934
:100380000860BFF34F8FFEE7D1680179C907FBD53D
:1003900011460A78FD2313400B70FF21016043E0F2
:1003A0004A0713681B053CD56B465B7A002B38D196
:1003B00001236C466372049B042B32DB1368802498
:1003C000A3431360BF4A526884225200BD4B5B684E
:1003D0009BB2D21A062A0CDB10AA13780A2B03D17F
:1003E00001226B461A7004E00B2B02D100226B46EF
:1003F0001A72012204926A46127A002A52D0049A92
:10040000012A4FD152AA0823137001235370059B70
:100410009370059B1B12D370AB4A1378194311706C
:1004200029E0049A032AE6D104A8A8490A680260D0
:10043000842252000999A348FFF732FE042204A93E
:10044000A348FFF72DFE8020C005016880220A43E3
:100450000260842040009B49496889B2401A042800
:10046000F7DD8020C00501688022914301600720EC
:1004700004901FE0D1680179C907FBD511460A78BD
:10048000FD2313400B70FF21016084225200099963
:100490008C48FFF705FE059A121D0A998C48FFF754
:1004A000FFFDD0E70498052804D1D2E76B465A73C4
:1004B0000F910E9068460078012802D16846007BB3
:1004C000002800D0C7E110A882490D9A895C441821
:1004D00052AE0420019A10700E21019A51700199B8
:1004E000887001200199C87020780199087160789E
:1004F00001994871002001998871012069460872AC
:100500006078FC2800D08BE1A07804280FDBE0782D
:10051000009021790902014300910846617909049C
:10052000014300910846A179090601430091207812
:1005300021380928E6D802A14000095A8F4400BF9B
:100540001400D200DA00EE000601380198013A02E8
:1005500072021C010120694608736DE1920B0410C0
:1005600000200000140004100000041094A800787B
:1005700000289FD16846427B0F990E9800E0012227
:10058000089B9B8FDB0691D5089B1B88DBB2140070
:1005900002D100246E4674816C466489661C6F46E5
:1005A0007E8110AF3B55140005D1012BE7D0FF2B06
:1005B000E6D10322E4E7012A01D10222E0E7022A80
:1005C00001D10622DCE7032A01D10422D8E7042A5C
:1005D00002D118000522D3E7052A06D119024018D6
:1005E00080B20021002806D10EE0062A05D11800AD
:1005F0000021002808D00B22C2E70B2AC0D1491CD9
:100600008BB284B2A342BBD3002201236C46237079
:10061000B6E701988570062026E0062001998870CB
:1006200040200199C87100200199087204E100205E
:100630000090042269460B98FFF7D1FD00283ED0B8
:100640004A20B072F8E0AC480090042269460B984A
:10065000FFF7C5FD002832D04A20EBE001988570F5
:10066000A64800680006000F0199C871E4E000BFC9
:100670000400FA050CED00E0FC2001998871009857
:1006800006998842F2D38005F0D1009908009C4A6F
:1006900012689C4B9A42E9D13F229B4B1A61890315
:1006A000090C9961112119601969C907FCD5590D07
:1006B0000023DB4302689A42D8D1001D491E58D05E
:1006C000F8E700BF580000A0800040408C0B0410E9
:1006D0006C0000A0900B0410FB2001998871009819
:1006E00006998842C2D3E079217A0E020643032795
:1006F0000098032505400ED0401B0090761900207D
:1007000007E000990918097822000932431BD154E7
:10071000401CA842F5DB3740032086430ED0320050
:1007200020000930694241180098FFF758FD002861
:100730009CD101998871009880190090002F7BD07E
:100740000020874206D221000931721B1218009B3B
:100750001B788B54401C0428F3DB089504222846A0
:1007600041426018811909310098FFF738FD0028CF
:1007700001D100205EE0FB205CE0009806998842F1
:1007800015D3E179207A000208430021F31D08E027
:10079000009A12780C9C64181A55009A521C009208
:1007A000491C8142F4D3001D01998870E1E7FA20C9
:1007B00040E0FA2001998871082001998870FF2093
:1007C000019AD071019A1072019A5072019988723F
:1007D0000098069988422FD3002001998871E0790A
:1007E000C10200230022494D0CE0009880180068E7
:1007F0005840030020205C00DB0F6B436340401E29
:10080000F9D1121D8A42F0D30199CB71180A0199CE
:100810000872180C01994872180E019988720BE041
:100820000F200199487001200199087120780199E1
:1008300048716078019988716846007A012807D16B
:1008400001988078042800DC8CE5C01C80B20590FB
:1008500000206946087094A80078002820D16846D6
:10086000007A00280CD00798002809D101200790B1
:10087000059A0A992648FFF713FC0020694608727A
:100880002020A02109060968014009D0A0210906FD
:100890004860002007901E480168012291430160D2
:1008A0001C4808906846007A002807D16846007BFB
:1008B000002803D00798002800D155E5052594A805
:1008C0000078012800D051E6134802214A07126837
:1008D000120500D564E56A46527A002A00D15FE528
:1008E00000226B465A72049A012A00D099E50B4AFD
:1008F00013781943117048E545554C421C0090404F
:1009000014000020CCBCECFC00001040B71DC1045A
:100910001C0000A000003040080040408000404023
:1009200010B50F22474B1C682409144004701B6843
:100930001A400A700178002901D10121017010BD0F
:10094000F8B584B002A800BF49A10CC90CC03E484C
:100950003E4944180194091D45183D480078002877
:100960000BD13C480088052807DD280000F088F8F6
:10097000216881F308888047FEE700A9891C00A848
:10098000401CFFF7CDFF6846407800016946897832
:100990000143122904DB02A8417904220A4342716F
:1009A0002D488021490202AA92B20A4302600268DD
:1009B0000A40FCD129482A4908600120694608708C
:1009C00080070978032906D101688904CA0F01212B
:1009D00051406A46117000BF27A1224A224B1E686F
:1009E000224FBE420DD11A60684600788000085838
:1009F0008047684601780220FFF778FC002005B0A8
:100A0000F0BD6369934208D06846007880000858BA
:100A10008047684601780320EEE70068000708D5A4
:100A200068460078800008588047684601780420AE
:100A3000E2E7280000F024F80199096881F30888AA
:100A40008047FEE71C0090400020000000000410DA
:100A500008009040080010480C000048CCBCECFC9A
:100A60001400002045554C423000002001010101D6
:100A7000023B4802350B000031010410B90004109C
:100A8000C3788278417800781B021A430902120465
:100A900008431043704700002248FFF7F1FF8047EA
:100AA000FEE72148FFF7ECFF8047FEE780B51F48CF
:100AB00001E080B51E48FFF7E3FF804701BD80B528
:100AC0001C48F8E780B51C48F5E780B51B48F2E7FD
:100AD00080B51B48EFE780B51A48ECE780B51A48A7
:100AE000E9E780B51948E6E780B51948E3E780B53E
:100AF0001848E0E780B51848DDE780B51748DAE721
:100B000080B51748D7E780B51648D4E780B51648B2
:100B1000D1E780B51548CEE780B51548CBE780B55D
:100B20001448C8E7082004100C2004102C200410DE
:100B3000382004103C2004104020041058200410D9
:100B40005C20041054200410502004104420041091
:100B500074200410782004107C20041084200410D9
:100B6000882004108C20041090200410942004107D
:100B7000982004109C20041080B5002002490860D1
:100B800072B6FFF7DDFE01BD140000200801000071
:100B900001060004FFFFFFFFFFFFFFFFFFFFFFFF56
:100BA000FFFFFFFFFFFFFFFFFFFFFFFFFFFFFFFF55
:100BB000FFFFFFFFFFFFFFFFFFFFFFFFFFFFFFFF45
:100BC000FFFFFFFFFFFFFFFFFFFFFFFFFFFFFFFF35
:100BD000FFFFFFFFFFFFFFFFFFFFFFFFFFFFFFFF25
:10200000006000202B3806107B2306108723061063
:10201000AA5555AA45554C4200000000000000009A
:1020200000000000000000000000000093230610E4
:102030000000000000000000E76604109523061071
:10204000A123061017670410000000000000000024
:10205000A92306109B670410EB230610E3780410F5
:102060000000000000000000000000000000000070
:1020700000000000EB8404103F8504105F8504100D
:10208000000000006F6D04106B6E04109B71041053
:10209000EF73041023760410B3860410D9230610BE
:1020A0000000000000000000000000000000000030
:1020B0000000000000000000000000000000000020
:1020C00010B5062B01DC002010BD1400032901D03F
:1020D000122008E0027841780906090C0A43817849
:1020E000100004F09BF9E070042020700F21617053
:1020F000A070012121710621617100F0BDFC10B5B5
:10210000062B01DC002010BD1400022901D0122092
:1021100007E0017842781206120C1143080004F01F
:1021200081F9E070042020700F216170A0700121FE
:1021300021711D21617100F09FFC10B5062B01DC9F
:10214000002010BD1400082901D0122001E004F085
:10215000A1F9A071042020700E216170A0700120EF
:10216000E07014E010B5062B01DC002010BD140057
:10217000002901D0122001E004F0A0F9A071042090
:1021800020700E216170A0700120E070032020718A
:102190000C206071072010BD38B500246D462C70EE
:1021A000092B01DC002032BD1400032902D01220CB
:1021B000A07115E00500287869780906090C084324
:1021C0006A46A97804F07FF9A07128786978090631
:1021D000090C0843E071000A2072684600786072BA
:1021E000042020700E2060700720A0700120E07095
:1021F0002D2020710C2060710A2032BD38B586B0C8
:1022000000206D466C466860A0600F2B49DB14000F
:10221000002902D01220A07137E002A8009002AB82
:102220009B1C01AA01A9891C01A8401C04F074F997
:10223000A07103A804F082F903A86946C9880907B8
:10224000090F427812030A4381780902F0231B0127
:102250000B40134300780001F02101401943684608
:10226000C1804079E0716846C0882072000A6072BF
:1022700068460079A07268464089E072000A2073BF
:10228000684600896073000AA073042020700E2045
:1022900060700C20A0700120E0702071102060712F
:1022A0000F2007B030BD10B590B0472B01DA0020E9
:1022B0001BE01400002902D01220A07108E068463B
:1022C00004F0ABF9A07140226946E01D04F0EDF97D
:1022D000042020700E2060704420A0700120E07067
:1022E0000220207110206071472010B010BD1CB575
:1022F0000F2B01DA002016BD1400002902D0122095
:10230000A07108E0684604F0E4F9A071082269466B
:10231000E01D04F0CAF9042020700E2060700C202B
:10232000A0700120E0700320207110207CE31CB518
:102330000D2B01DA002016BD1400002902D0122056
:10234000A07108E0684604F0CFF9A0710622694642
:10235000E01D04F0AAF9042020700E2060700A200D
:10236000A0700120E07009202071102000F0ADFD68
:1023700038B500246D462C70092B01DC002032BDDD
:102380001400022902D01220A07114E00500287860
:1023900069780906090C0843694604F0B1F9A0718F
:1023A000287869780906090C0843E071000A207250
:1023B000684600786072042020700E20607007204C
:1023C000A0700120E07005202071142060710A20A7
:1023D00032BD10B5062B01DC002010BD1400082909
:1023E00001D0122001E004F097F9A07104202070C0
:1023F0000E216170A0700120E07020712020C8E6DD
:102400001CB500206C4660802070092B20DD140074
:10241000002902D01220A0710DE0694600A8801C9E
:1024200004F09AF9A07168464088E071000A2072B1
:10243000684600786072042020700E2060700720CB
:10244000A0700120E07002202071202060710A201D
:1024500016BD1CB50F2B01DA002016BD1400002993
:1024600002D01220A07108E0684604F091F9A07132
:1024700008226946E01D04F018F9042020700E209F
:1024800060700C20A0700120E0700320CAE210B53B
:10249000062B01DC002010BD1400062901D01220FB
:1024A00001E004F07BF9A071042020700E2161701E
:1024B000A0700120E07005202071202069E61FB582
:1024C000062B01DC002028E014000F2901D0122087
:1024D00016E002009178D0780006000C01431078D5
:1024E00053781B061B0C1843937B0393537B029377
:1024F000D31D0193937900935379127904F07AF9FB
:10250000A071042020700E216170A0700120E07085
:102510000620207120206071072004B010BD1CB57A
:1025200000206C462070072B19DD1400002902D012
:102530001220A07106E0684604F0A8F9A071684670
:102540000078E071042020700E2060700520A070DB
:102550000120E0700720207120206071082016BD46
:1025600010B5062B01DC002010BD1400202901D07D
:10257000122003E0411C007804F08CF9A0710420C3
:1025800020700E216170A0700120E0700820207181
:102590002020FEE510B5062B01DC002010BD140044
:1025A000202901D0122003E0411C007804F07DF9BD
:1025B000A071042020700E216170A0700120E070D5
:1025C000092020712020E4E510B5062B01DC002055
:1025D00010BD1400012901D0122002E0007804F09F
:1025E0006FF9A071042020700E216170A07001208D
:1025F000E0700A2020712020CBE51CB5062B01DC01
:10260000002016BD1400072901D012200FE0C27867
:1026100001790906090C0A43417883781B061B0CD3
:102620001943837900934379007804F097FAA071F5
:10263000042020700E216170A0700120E0700B203A
:102640002071202001F00BFE10B5062B01DC0020CC
:1026500010BD1400022901D0122003E04178007857
:1026600004F083FAA071042020700E216170A07024
:102670000120E0700C20207120208AE5F8B58AB096
:10268000062B01DC002054E01400192901D012208F
:1026900042E00100CA7D087E0006000C0243684645
:1026A00082844A7D887D0006000C0243CB7C087D35
:1026B0000006000C03434D7C887C0006000C05439B
:1026C000CE7B087C0006000C0643487B8F7B3F06D0
:1026D0003F0C38436F4678848878CF783F063F0CAC
:1026E00038436F46388408784F783F063F0C3843AC
:1026F0006F46BF8C079706920593049503966A462A
:10270000528C02920A7B01928A1D00924B790A79BF
:102710006946098C04F0F3F9E070042020700F2161
:102720006170A070012020710D2060712020A071C7
:1027300007200BB0F0BD10B5062B01DC002010BD4A
:102740001400002901D0122001E004F0F5F9A07175
:10275000042020700E216170A0700120E0702171B2
:10276000202016E51CB500206C462070072B19DDD3
:102770001400002902D01220A07106E0684604F07F
:10278000BCFAA07168460078E071042020700E2029
:1027900060700520A0700120E0700F2020712020C3
:1027A0006071082016BD10B5062B01DC002010BD9D
:1027B0001400002901D0122001E004F0A5FAA07154
:1027C000042020700E216170A0700120E0701020A4
:1027D00020712020DDE410B5062B01DC002010BDA7
:1027E0001400072901D0122003E0411C007804F0F6
:1027F0008FFAA071042020700E216170A07001205A
:10280000E070112020712020C3E438B5062B01DCD4
:10281000002032BD12241500072901D0AC7104E05C
:10282000411C007804F08DFAA871042028700E2154
:102830006970A8700120E8702C7120206871072051
:1028400032BDF8B584B0062B01DC002041E0140055
:102850000E2901D012202FE0027B417B0906090CD2
:102860000A43857AC17A0906090C0D43067A417A32
:102870000906090C0E438379C1790906090C0B433B
:10288000017947793F063F0C39436F46F9818178DA
:10289000C7783F063F0C39436F46B98101784778C6
:1028A0003F063F0C394308000292019500966946A5
:1028B000CA89898904F044F9E070042020700F214E
:1028C0006170A07001202071132060712020A07120
:1028D000072005B0F0BD10B5062B01DC002010BDAF
:1028E0001400052901D0122001E004F046F9A0717E
:1028F000042020700E216170A0700120E07014206F
:102900002071202045E43EB50E2B01DA00203EBDAB
:102910001400022902D01220A07117E005002878C7
:1029200069780906090C0843694604F01CFAA0718D
:10293000287869780906090C0843E071000A2072BA
:10294000052269462000093003F0AFFE0420207004
:102950000E2060700B20A0700120E0701520207107
:10296000202060710E203EBD10B5062B01DC00203A
:1029700010BD1400022901D0122007E0017842782E
:102980001206120C1143080004F0F2F9E070042062
:1029900020700F216170A07001202071162069E065
:1029A0001FB5172B01DA00201DE01400202902D0EA
:1029B0001220A0710AE06A460100103104F0E4F927
:1029C000A07110226946E01D03F06FFE0420207004
:1029D0000E2060701420A0700120E070172020717C
:1029E00020206071172004B010BD1CB50F2B01DA38
:1029F000002016BD1400002902D01220A07108E0AA
:102A0000684604F0C6F9A07108226946E01D03F08B
:102A10004CFE042020700E2060700C20A07001205D
:102A2000E07018202071202060710F2016BD10B5B5
:102A3000062B01DC002010BD14001C2901D012203F
:102A40000FE001008A7AC87A0006000C0243087879
:102A50004B781B061B0C18430B000C33891C04F02D
:102A600088F8E070042020700F216170A0700120B0
:102A70002071192060712020A071072010BD38B589
:102A8000092B01DA002032BD1400122902D01220D5
:102A9000A07111E00500287869780906090C08433F
:102AA000A91C04F07AF9A071287869780906090C44
:102AB0000843E071000A2072042020700E2060702C
:102AC0000620A0700120E0701A2024E038B5092B00
:102AD00001DA002032BD1400022902D01220A071B8
:102AE00010E00500287869780906090C084304F00D
:102AF0005BF9A071287869780906090C0843E07130
:102B0000000A2072042020700E2060700620A07041
:102B10000120E0701B20207120206071092032BD4F
:102B20001CB50F2B01DA002016BD1400002902D0BD
:102B30001220A07108E0684604F03DF9A071082257
:102B40006946E01D03F0B1FD042020700E20607086
:102B50000C20A0700120E0701C2063E710B5062B4C
:102B600001DC002010BD1400012901D0122002E078
:102B7000007804F025F9A071042020700E21617006
:102B8000A0700120E0701D2020712020FFF701FBC4
:102B900010B5062B01DC002010BD1400032901D064
:102BA000122004E082784178007804F01FF9A071C7
:102BB000042020700E216170A0700120E0701E20A2
:102BC00020712020FFF7E5FA1CB500206C4620801C
:102BD000092B1BDB1400002902D01220A07108E091
:102BE000684604F029F9A07168460088E071000A7F
:102BF0002072042020700E2060700620A07001203A
:102C0000E0701F20207120206071092016BD38B5AA
:102C1000092B01DA002032BD1400062902D012204F
:102C2000A0711AE005002A7968790006000C0243B9
:102C3000A978E8780006000C014328786B781B0619
:102C40001B0C184303F0D5FFA0712878697809069A
:102C5000090C0843E071000A2072042020700E2045
:102C600060700620A0700120E070222053E71CB5A0
:102C700000206C4620600B2B22DB1400002902D0C0
:102C80001220A0710FE0694600A8801C03F0B5FF78
:102C9000A07168464088E071000A2072684600888A
:102CA0006072000AA072042020700E20607008205C
:102CB000A0700120E07023202071202060710B2083
:102CC00016BD10B5062B01DC002010BD1400042930
:102CD00001D012200CE08178C2781206120C114348
:102CE000027843781B061B0C1A43100003F089FF7F
:102CF000A071042020700E216170A0700120E0708E
:102D0000242020712020FFF744FA10B5062B01DCA7
:102D1000002010BD1400002901D0122001E003F0B2
:102D200094FFE070042020700F216170A0700120DA
:102D3000207125209EE610B5062B01DC002010BD79
:102D40001400402901D0122001E003F082FFE0705E
:102D5000042020700F216170A070012020712620B6
:102D600088E610B5062B01DC002010BD14002729D1
:102D700001D0122006E003001733C21D411C007869
:102D800003F0C6FDA071042020700E216170A070B8
:102D90000120E070272020712020FFF7FAF910B5FC
:102DA000062B01DC002010BD1400072901D01220E1
:102DB00003E0411C007803F0A7FDA07104202070FF
:102DC0000E216170A0700120E07028202071202069
:102DD000FFF7DFF910B5062B01DC002010BD140051
:102DE000002901D0122001E003F0AAFDA071042007
:102DF00020700E216170A0700120E07029202071E8
:102E00002020FFF7C6F91CB500206C462070072B68
:102E100019DD1400002902D01220A07106E06846D6
:102E200003F08AFDA07168460078E07104202070EC
:102E30000E2060700520A0700120E0702A20207113
:102E400020206071082016BD1CB50D2B01DA002072
:102E500016BD1400072902D01220A0710AE06A46AC
:102E6000411C007803F060FDA07106226946E01D58
:102E700003F01BFC042020700E2060700A20A0705C
:102E80000120E0702B201EE01CB50D2B01DA002084
:102E900016BD1400072902D01220A0710AE06A466C
:102EA000411C007803F044FDA07106226946E01D34
:102EB00003F0FBFB042020700E2060700A20A0703D
:102EC0000120E0702C202071202060710D2016BDA3
:102ED00010B5062B01DC002010BD1400012901D023
:102EE000122002E0007803F01BFDA0710420207086
:102EF0000E216170A0700120E0702D202071202033
:102F0000FFF747F910B5062B01DC002010BD1400B7
:102F1000022901D0122007E0017842781206120C33
:102F20001143080003F0F8FCA071042020700E216A
:102F30006170A0700120E0702E2020712020FFF72A
:102F400028F91CB500206C46606020600F2B2FDB39
:102F50001400002902D01220A0711CE06B4600AAC8
:102F6000921C01A901A8801C03F04FFEA0716846C5
:102F7000C088E071000A2072684680886072000A8A
:102F8000A07268464088E072000A20736846008894
:102F90006073000AA073042020700E2060700C2063
:102FA000A0700120E0702F202071202060710F2080
:102FB00016BD1CB500206C462080082B1EDD1400B9
:102FC000002902D01220A0710BE0694600A8401C25
:102FD00003F044FFA07168464078E07168460078CD
:102FE0002072042020700E2060700620A070012046
:102FF000E0704B20207120206071092016BD10B5B3
:10300000062B01DC002010BD1400082901D012207D
:1030100004E0C279411C007803F096FCA071042002
:1030200020700E216170A0700120E0704E20207190
:103030002020FFF7AEF838B5002568460580092B3B
:1030400001DA002032BD1400002902D01220A07144
:1030500007E003F00BFFA07168460088E071000AEA
:103060002072042020700E2060700620A0700120C5
:10307000E0702571FC2050E530B58BB0002008AD24
:1030800028606C4620856D46E8616062152B54DB34
:1030900012251400002901D0A57143E009A806906B
:1030A000801C059007A80490401C039007A8801C72
:1030B000029007A8C01C01900AA8009008AB08AABB
:1030C000521C08A9891C08A8C01C03F0DDFEA071D1
:1030D00008A8C01C0078E07108A8801C0078207245
:1030E00008A8401C0078607208A80078A0726846A2
:1030F000008DE072000A20736846C07F60736846E6
:10310000807FA0736846407FE0736846007F20742C
:103110006846C08C6074000AA0746846808CE074B5
:10312000000A2075042020700E206070A570012018
:10313000E0702071FC20607115200BB030BD10B51F
:10314000062B01DC002010BD0B00417814008A1C06
:10315000934201D0122003E0821C007803F028FF84
:10316000A071042020700E216170A0700120E07019
:103170000C202071FC20FFF70CF878B5C1B01E00C0
:1031800000236D462B70072E14DB1400012902D09A
:103190001220A07117E001AA6946007803F00CFF25
:1031A000A071072E06DD68460078E07102460830FF
:1031B000864201D2002014E001A92000083003F06B
:1031C00074FAE3799B1C042020700E206070D81CD8
:1031D000A0700120E0700D202071FC2060719B1D0B
:1031E00098B242B070BD10B5062B01DC002010BDB6
:1031F0001400022901D0122003E04178007803F086
:10320000DFFEA071042020700E216170A0700120EB
:10321000E0700F202071FC20FEF7BBFF1CB50020E2
:1032200000900B2B1ADB1400002902D01220A07191
:1032300007E0684603F0C8FEA071E11D009803F0A6
:10324000CFFE042020700E2060700820A0700120A6
:10325000E07014202071FC2060710B2016BD10B5A9
:10326000062B01DC002010BD1400022901D0122021
:1032700003E04178007803F0BDFEA07104202070C7
:103280000E216170A0700120E07015202071FC20DB
:10329000FEF77FFF10B5062B01DC002010BD1400E7
:1032A000002901D0122001E003F014FFA0710420D6
:1032B00020700E216170A0700120E0701620207136
:1032C000FC20FEF766FF10B586B01F2B01DA002048
:1032D00022E01400002902D01220A0710FE002A900
:1032E000684603F019FFA07108226946E01D03F04B
:1032F000DCF9102202A920000F3003F0D6F90420D7
:1033000020700E2060701C20A0700120E07017203B
:103310002071FC2060711F2006B010BD10B5062B77
:1033200001DC002010BD1400022901D0122007E0AA
:10333000017842781206120C1143080003F016FFC0
:10334000A071042020700E216170A0700120E07037
:1033500018202071FC20FEF71CFF1CB500200190F6
:1033600000900F2B20DB1400002902D01220A07146
:103370000DE0694601A803F001FFA071E11D01986D
:1033800003F02EFE21000B31009803F029FE0420EB
:1033900020700E2060700C20A0700120E0701920B9
:1033A0002071FC2060710F2016BD10B5062B01DCCA
:1033B000002010BD1400042901D0122003E003F006
:1033C000E1FE03F0EBFEA071042020700E2161707D
:1033D000A0700120E0701A202071FC20FEF7D9FEB9
:1033E00010B5062B01DC002010BD1400002901D00F
:1033F000122001E003F040FDA071042020700E2196
:103400006170A0700120E07020202071FC20FEF788
:10341000C0FE10B5062B01DC002010BD14000529EC
:1034200001D0122009E0C37801790906090C0B4389
:1034300082784178007803F069FDA0710420207043
:103440000E216170A0700120E0702B202071FC2003
:10345000FEF79FFE10B5062B01DC002010BD140006
:10346000002901D0122001E003F0A8FEA071042081
:1034700020700E216170A0700120E0708120207109
:10348000FC20FEF786FEF0B587B0C479050008354C
:103490002D192E78A61987190937072B01DA002074
:1034A00037E014000D36B14201D0122024E0BB7881
:1034B000F9780906090C0B433E7879780906090C5E
:1034C0000E43C27801790906090C0A4341788778CE
:1034D0003F063F0C3943069305966B1C04932B78EB
:1034E0000393030008330293C37901938379009314
:1034F0004379007803F06CFEE070042020700F2107
:103500006170A0700120207182206071FC20A07188
:10351000072007B0F0BDF0B587B0C47905000835C5
:103520002D192E78A61987190937072B01DA0020E3
:1035300037E014000D36B14201D0122024E0BB78F0
:10354000F9780906090C0B433E7879780906090CCD
:103550000E43C27801790906090C0A43417887783D
:103560003F063F0C3943069305966B1C04932B785A
:103570000393030008330293C37901938379009383
:103580004379007803F045FEA071042020700E21DD
:103590006170A0700120E07083202071FC206071B8
:1035A000072007B0F0BD1CB5062B01DC002016BDBE
:1035B00014000D2901D0122011E0C17A027B1206FD
:1035C000120C1143427A837A1B061B0C1A43019199
:1035D0000092C31C82784178007803F03BFEA07112
:1035E000042020700E216170A0700120E070842002
:1035F00000F033FE10B5062B01DC002010BD1400D6
:10360000012901D0122002E0007803F035FEA071FC
:10361000042020700E216170A0700120E0708520D0
:103620002071FC20FEF7B5FD30B585B0062B01DC1E
:10363000002024E014000C2901D0122012E0050023
:10364000E81D03F09FFDE97A04910390A8790290A8
:103650006879019028790090EB78AA7869782878C1
:1036600003F012FEA071042020700E216170A07082
:103670000120E07086202071FC206071072005B0D9
:1036800030BD10B5062B01DC002010BD140003294D
:1036900001D0122008E0027841780906090C0A439B
:1036A0008178100003F03AFEA071042020700E21F2
:1036B0006170A0700120E07087202071FC20FEF76F
:1036C00068FD38B50500062B01DC002032BD140072
:1036D000062901D012200BE0A81C03F053FD2A7824
:1036E00069780906090C0A430100100003F020FE66
:1036F000A071042020700E216170A0700120E07084
:1037000088202071FC2001F0BAFC10B5062B01DCEA
:10371000002010BD1400032901D0122008E0027817
:1037200041780906090C0A438178100003F00CFE69
:10373000A071042020700E216170A0700120E07043
:1037400089202071FC20FEF724FD38B584B00024C8
:103750006D46AC81AC600D2B01DA00202CE014002A
:10376000032902D01220A07119E002A90191891C3D
:10377000009103AB82784178007803F0EFFDA071EF
:1037800068468089E071000A20726846408960724C
:10379000000AA07268460089E072000A20730420C3
:1037A00020700E2060700A20A0700120E0708A2036
:1037B0002071FC2060710D2005B030BD10B5062BC6
:1037C00001DC002010BD1400022901D0122003E00A
:1037D0004178007803F0DAFDA071042020700E21FA
:1037E0006170A0700120E0708B202071FC20FEF73A
:1037F000D0FC10B5062B01DC002010BD14000629FA
:1038000001D012200EE002009178D0780006000C62
:103810000143107853781B061B0C18435379127917
:1038200003F0BEFDA071042020700E216170A07015
:103830000120E0708C202071FC20FEF7AAFC10B55E
:10384000062B01DC002010BD1400022901D012203B
:1038500007E0017842781206120C1143080003F0C9
:10386000A9FDE070042020700F216170A07001207C
:1038700020718D206071FC20FFF7FEF810B5062B3B
:1038800001DC002010BD030018781400421C914296
:1038900001D0122002E0591C03F090FDA071042019
:1038A00020700E216170A0700120E0708E202071C8
:1038B000FC20FEF76EFC10B5062B01DC002010BDCD
:1038C0001400012901D0122002E0007803F07EFDEF
:1038D000A071042020700E216170A0700120E070A2
:1038E0008F202071FC20FEF754FC38B500246D4673
:1038F0002C80082B01DC002032BD1400022902D0EC
:103900001220A07111E0010008784A781206120C0A
:1039100010436A4600A9491C03F064FDA071684683
:103920004078E071684600782072042020700E20F4
:1039300060700620A0700120E07090202071FC20B3
:10394000FFF7EBF810B5062B01DC002010BD1400CA
:10395000022901D0122007E0017842781206120CE9
:103960001143080003F044FDA071042020700E21D3
:103970006170A0700120E07091202071FC20FEF7A2
:1039800008FC10B5062B01DC002010BD1400002936
:1039900001D0122001E003F03BFDA0710420207053
:1039A0000E216170A0700120E07092202071FC2037
:1039B000FEF7EFFB10B5062B01DC002010BD140054
:1039C000032901D0122008E0027841780906090C89
:1039D0000A438178100003F01FFDE070042020707E
:1039E0000F216170A0700120207193206071FC2074
:1039F000FFF742F810B5062B01DC002010BD1400C3
:103A0000002901D0122001E003F00AFDA07104207A
:103A100020700E216170A0700120E0709420207150
:103A2000FC20FEF7B6FB10B5062B01DC002010BD14
:103A30001400022901D0122007E001784278120612
:103A4000120C1143080003F0EFFCA0710420207059
:103A50000E216170A0700120E07095202071FC2083
:103A6000FEF797FB10B5062B01DC002010BD1400FB
:103A7000062901D012200EE002009178D0780006CD
:103A8000000C0143107853781B061B0C1843537924
:103A9000127902F0EEFFE070042020700F216170B7
:103AA000A0700120207196206071FC20FEF7E4FFD9
:103AB00010B5062B01DC002010BD1400062901D032
:103AC00012200EE002009178D0780006000C01432D
:103AD000107853781B061B0C18435379127902F0A7
:103AE000CCFFE070042020700F216170A0700120D5
:103AF000207197206071FC20FEF7BEFFF0B589B001
:103B0000062B01DC002052E01400182901D01220FD
:103B100040E001008A7DC87D0006000C0243684633
:103B200002840A7D487D0006000C02438B7CC87C21
:103B30000006000C03430D7C487C0006000C054386
:103B40008E7BC87B0006000C0643087B4F7B3F063C
:103B50003F0C38436F46F8838878CF783F063F0C98
:103B600038436F46B88308784F783F063F0C384398
:103B70006F463F8C069705920493039502966A461A
:103B8000D28B0192CA7A00924B1D0A796946898BC1
:103B900002F077FFE070042020700F216170A070A8
:103BA0000120207198206071FC20A071072009B0CD
:103BB000F0BDF8B5C8B00F001600072B01DA0020E1
:103BC00066E0002405000CE0E000011B09A8401895
:103BD00069188A7C027006221331401C02F065FDD0
:103BE000641C687C8442EFDB3400C100081A123088
:103BF000874201D012203EE0E97B287C0006000CC1
:103C0000014368460184697BA87B0006000C0143E0
:103C1000EA7A287B0006000C02436B7AA87A000639
:103C2000000C0343EE79287A0006000C06436879FD
:103C3000AF793F063F0C38436F46F883A878EF789A
:103C40003F063F0C38436F46B88328786F783F06AD
:103C50003F0C384309AF06976F7C05976F463F8C42
:103C6000049703910292019300966946CB8B2A79BF
:103C7000898B02F09DFEE070042020700F2161709E
:103C8000A0700120207199206071FC20A071072094
:103C900049B0F0BD1CB5062B01DC002016BD140098
:103CA000082901D0122011E0C27801790906090C17
:103CB0000A43417883781B061B0C1943C37901938F
:103CC000837900934379007802F08CFEE070042041
:103CD00020700F216170A070012020719A20B9E13D
:103CE000F0B5C3B00F001600072B01DA00203CE04E
:103CF000002405000CE0E000011B04A8401869182E
:103D00004A7A027006220A31401C02F0CEFC641C82
:103D1000287A8442EFDBC100081A0930874201D0BB
:103D2000122015E0EA7828790006000C0243697831
:103D3000A8780006000C014304A80390287A02909A
:103D4000E8790190A87900906B79287802F054FE08
:103D5000F070042030700F217170B070012030714C
:103D60009B207071FC20B071072043B0F0BDF0B50E
:103D700089B0062B01DC002052E01400182901D084
:103D8000122040E001008A7DC87D0006000C02433D
:103D9000684602840A7D487D0006000C02438B7C45
:103DA000C87C0006000C03430D7C487C0006000C18
:103DB00005438E7BC87B0006000C0643087B4F7BC7
:103DC0003F063F0C38436F46F8838878CF783F062C
:103DD0003F0C38436F46B88308784F783F063F0C56
:103DE00038436F463F8C06970592049303950296DD
:103DF0006A46D28B0192CA7A00924B1D0A796946B3
:103E0000898B02F009FEE070042020700F216170A0
:103E1000A070012020719C206071FC20A0710720FF
:103E200009B0F0BD10B5062B01DC002010BD140058
:103E3000012901D0122002E0007802F016FEA071E4
:103E4000042020700E216170A0700120E0709D2080
:103E50002071FC20FEF79DF9F8B584B0062B01DC3B
:103E6000002041E014000E2901D012202FE0027B37
:103E7000417B0906090C0A43857AC17A0906090CB7
:103E80000D43067A417A0906090C0E438379C179FC
:103E90000906090C0B43017947793F063F0C39436A
:103EA0006F46F9818178C7783F063F0C39436F46EA
:103EB000B981017847783F063F0C394308000292E8
:103EC000019500966946CA89898902F0C0FDE070B3
:103ED000042020700F216170A070012020719E20AD
:103EE0006071FC20A071072005B0F0BD10B5062B55
:103EF00001DC002010BD1400032901D0122008E0CD
:103F0000027841780906090C0A438178100002F012
:103F1000DDFDE070042020700F216170A070012091
:103F200020719F206071FC20FEF7A6FD1CB50D2BB3
:103F300001DA002016BD1400062902D01220A0715B
:103F400008E0694603F074FAA07106226946E01D94
:103F500002F0ABFB042020700E2060700A20A070DD
:103F60000120E070A0202071FC20FEF7AEFFF3B529
:103F7000C3B006001700F01DB1794518072B01DA10
:103F800000203FE000240CE0E000011B681804AAB8
:103F90005318417819700622811C581C02F085FBC9
:103FA000641C28788442EFDB44A90988B279C300F5
:103FB000181A10180830814201D0122015E0B1788B
:103FC000F0780006000C0143307872781206120C6B
:103FD000104304AA03922A780292F21D0192B27948
:103FE00000927379327903F027FAB871042038709F
:103FF0000E217970B8700120F870A1203871FC2072
:104000007871072045B0F0BD1CB5062B01DC0020FF
:1040100016BD1400082901D0122012E00200917888
:10402000D0780006000C0143107853781B061B0C57
:104030001843D3790193937900935379127902F05D
:104040003BFDE070042020700F216170A070012002
:104050002071A2206071FC20A071072016BDF8B568
:10406000C0B01F00002400206D462C70072F3CDBE1
:104070001500002913D01221A97100E0300004219D
:1040800029700E216970C11CA9700121E970A3215A
:104090002971FC216971801D80B241B0F0BD01A978
:1040A000684603F0E9F9A871072F1EDD684600781D
:1040B000E871022606E00622491C093002F0F5FAF2
:1040C000B61D641C684600788442D7DAF11D8F4221
:1040D0000BD3E000011B681801AA51180A7802727C
:1040E000761C33000C339F42E5DA0020D5E710B58B
:1040F000062B01DC002010BD1400072901D012207E
:1041000003E0411C007803F0C1F9A0710420207085
:104110000E216170A0700120E070A4202071FC20AD
:10412000FEF737F810B5062B01DC002010BD140097
:10413000032901D0122008E0027841780906090C11
:104140000A438178100002F07CFDA07104202070E9
:104150000E216170A0700120E070A5202071FC206C
:10416000FEF717F810B5062B01DC002010BD140077
:10417000032901D0122008E0027841780906090CD1
:104180000A438178100002F058FDA07104202070CD
:104190000E216170A0700120E070A6202071FC202B
:1041A000FDF7F7FF38B588B000246D46AC80202BB2
:1041B00001DA002031E01400012902D01220A071A0
:1041C0001EE0050004A8009001AB02AA01A9491C49
:1041D000287803F06BF9A07168464079E0710622F7
:1041E00002A92000083002F060FA2878A07368461F
:1041F0000079E073102204A92000103002F055FA73
:10420000042020700E2060701D20A0700120E0703E
:10421000A7202071FC206071202009B030BD1CB5A2
:10422000062B01DC002016BD14001A2901D0122033
:104230000AE001000A310191417A0091037A821C5F
:104240004178007803F03CF9A071042020700E2121
:104250006170A0700120E070A8202071FC206071C6
:10426000072016BDF8B5C0B00F001600411C02783B
:10427000D400A21A89180091072B01DA00202DE042
:10428000002405000EE0E000001B691C095C01AA87
:10429000115406222918891C01AB5B1C181802F066
:1042A00004FA641C28788442EDDBC200111A891CD0
:1042B0008F4201D0122004E000990A7801A902F08F
:1042C0001FFBB071042030700E217170B07001209E
:1042D000F070A9203071FC207071072041B0F0BD52
:1042E00010B5062B01DC002010BD1400072901D0F9
:1042F000122003E0411C007803F0F6F8A0710420BE
:1043000020700E216170A0700120E070AA20207141
:10431000FC20FDF73EFF10B5062B01DC002010BD90
:104320001400002901D0122001E003F0E7F8A07189
:10433000042020700E216170A0700120E0702071B7
:10434000FD20FDF726FFF1B588B00F0016000078BC
:10435000012801D1032004E0022801D1112000E04E
:1043600001200899081802900022002069468880E0
:10437000092B38DB089800780225012801D1022298
:1043800002E0022800D110220898411C03A802F084
:104390008CF908980078012801D1052104E0022851
:1043A00001D1132100E003218F4202D01220B0710D
:1043B0000DE001A9009102994B780A7803A903F056
:1043C000A1F8B07168468088F071000A307204204C
:1043D00030700E2070700620B0700120F0703571C2
:1043E000FD20707109200AB0E0BD78B587B00D00DE
:1043F000140000226E463281092B01DA002044E0CD
:104400000600B079012801D1022202E0022800D181
:104410001022F11D03A802F048F9B079012801D15A
:10442000092004E0022801D1172000E0072085427E
:1044300002D01220A0711BE0327970790006000CC6
:104440000243B178F0780006000C014330787378AD
:104450001B061B0C184302AB019303AB0093B3790B
:1044600003F06BF8A07168460089E071000A2072C1
:10447000042020700E2060700620A0700120E070E3
:1044800003202071FD206071092008B070BDF0B5D7
:104490008BB004000F001600A078012801D1052080
:1044A00004E0022801D1132000E003202518002297
:1044B000002069460883092B46DBA078012801D13A
:1044C000022202E0022800D11022E11C07A802F01B
:1044D000ECF8A078012801D10C2004E0022801D1D9
:1044E0001A2000E00A20874202D01220B0711FE09B
:1044F0002B7868780006000C034320786178090661
:10450000090C084306A90591A979049169790391D9
:1045100029790291E9780191A978009107AAA178F7
:1045200003F022F8B0716846008BF071000A307217
:10453000042030700E2171700621B1700121F170DC
:104540003071FD20707109200BB0F0BDF7B590B04F
:104550000400207905271526012803D1E01D0990C4
:10456000072109E0022804D1200015300990152107
:1045700002E0601D09900521A01C099A5278891853
:1045800040180B900022002069460885092B59DB52
:104590002079012801D1022202E0022800D1102254
:1045A000611D0CA802F081F82079012801D10726AD
:1045B00002E0022800D0052611A80088129D099962
:1045C00049787118C91D884202D01220A8712DE0C7
:1045D000A178E0780006000C01432078627812068A
:1045E000120C10430AAA08920B9A127907920B9A9E
:1045F000D27806920B9A927805920B9A527804928E
:104600000B9A12780392099A921C0292099A527894
:104610000192099A127800920CAB227902F0C3FF42
:10462000A8716846008DE871000A2872042028707D
:104630000E2068700620A8700120E8702F71FD2000
:104640006871092013B0F0BD38B5062B01DC0020DD
:1046500032BD14004279921D914201D0122010E027
:104660008178C2781206120C11430578427812063E
:10467000120C1543821D009243790279280002F042
:10468000BAFFA071042020700E216170A07001207B
:10469000E070062000F0F1FC10B5062B01DC0020D4
:1046A00010BD1400042901D012200CE08178C278DA
:1046B0001206120C1143027843781B061B0C1A4396
:1046C000100002F0A2FFA071042020700E21617082
:1046D000A0700120E07007202071FD20FDF759FD3A
:1046E00010B5062B01DC002010BD1400022901D0FA
:1046F000122007E0017842781206120C11430800DC
:1047000002F087FFA071042020700E216170A0705C
:104710000120E07008202071FD20FDF73AFD10B562
:10472000062B01DC002010BD1400042901D012204A
:104730000CE08178C2781206120C1143027843789B
:104740001B061B0C1A43100002F067FFA071042027
:1047500020700E216170A0700120E070092020718E
:10476000FD20FDF716FD10B5062B01DC002010BD65
:104770001400042901D0122003E002F003FD02F02E
:1047800051FFA071042020700E216170A0700120E3
:10479000E0700A202071FD20FDF7FBFC10B5062B10
:1047A00001DC002010BD1400022901D0122007E016
:1047B000017842781206120C1143080002F040FF03
:1047C000E070042020700F216170A0700120207122
:1047D0000B206071FD20FEF74FF938B5062B01DC88
:1047E000002032BD1400062901D0122011E0030080
:1047F0001A7958790006000C02439978D878000697
:10480000000C014318785D782D062D0C284302F02A
:104810001BFFE070042020700F216170A070012048
:1048200020710C20EFE07CB5062B01DC002076BD6A
:1048300003001400187A0930814201D012201BE0D5
:104840009D79D8790006000C05431A79587900063D
:10485000000C02439978D8780006000C01431878C0
:104860005E783606360C30431E00093601961B7AF8
:1048700000932B0002F0ECFEE070042020700F216A
:104880006170A070012020710D206071FD20A07169
:10489000072076BD78B585B00D001400062B01DC2D
:1048A00000203DE00600B079012801D1022204E099
:1048B000022801D1102200E00022F11D01A801F020
:1048C000F4FEB079012801D1092004E0022801D1C9
:1048D000172000E00720854201D0122013E0327932
:1048E00070790006000C0243B178F0780006000CE5
:1048F0000143307873781B061B0C184301AB0093FF
:10490000B37902F0B3FEE070042020700F216170D3
:10491000A070012020710E206071FD20A071072081
:1049200006B070BD78B585B00D001400062B01DC13
:1049300000203CE00600B079012801D1022204E009
:10494000022801D1102200E00022F11D01A801F08F
:10495000ACFEB079012801D1092004E0022801D180
:10496000172000E00720854201D0122013E03279A1
:1049700070790006000C0243B178F0780006000C54
:104980000143307873781B061B0C184301AB00936E
:10499000B37902F07FFEE070042020700F21617077
:1049A000A070012020716171FD20A071072006B068
:1049B00070BD38B5072B01DA002032BD03001400AA
:1049C0009879C01D814201D0122013E01A795879DC
:1049D0000006000C02439978D8780006000C0143C9
:1049E00018785D782D062D0C2843DD1D00959B79E8
:1049F00002F064FEE070042020700F216170A0704E
:104A00000120207110206071FD20A071072032BDAF
:104A100010B5062B01DC002010BD1400032901D0C5
:104A2000122008E0027841780906090C0A438178CF
:104A3000100002F04DFEE070042020700F21617024
:104A4000A0700120207111206071FD20FEF714F884
:104A500038B5062B01DC002032BD122514000229D6
:104A600001D0E57008E0017842781206120C11437B
:104A7000080002F031FEE070042020700F21617008
:104A8000A070012020716571BEE7F8B584B00E00FA
:104A90001500062B01DC002032E00700B878012861
:104AA00001D1022204E0022801D1102200E00022FC
:104AB000F91C684601F0F9FDB8781324012801D1EA
:104AC000052004E0022801D1132000E003208642E3
:104AD00001D0122008E0387879780906090C0843DB
:104AE0006A46B97802F0FCFDE870042028700F21B6
:104AF0006970A870012028716C71FD20A8710720D1
:104B000005B0F0BD38B5062B01DC002032BD140025
:104B1000062901D0122011E003001A795879000605
:104B2000000C02439978D8780006000C01431878ED
:104B30005D782D062D0C284302F0E2FDE070042084
:104B400020700F216170A0700120207114205AE79D
:104B500038B5062B01DC002032BD1400062901D037
:104B6000122011E003001A7958790006000C024364
:104B70009978D8780006000C014318785D782D06E6
:104B80002D0C284302F0C0FDE070042020700F219E
:104B90006170A07001202071152034E778B585B0D0
:104BA0000D001400062B01DC00203DE00600B0796A
:104BB000012801D1022204E0022801D1102200E0E4
:104BC0000022F11D01A801F070FDB079012801D18A
:104BD000092004E0022801D1172000E007208542C7
:104BE00001D0122013E0327970790006000C0243E4
:104BF000B178F0780006000C0143307873781B061A
:104C00001B0C184301AB0093B37902F081FDE070F7
:104C1000042020700F216170A070012020711620E7
:104C20006071FD20A071072006B070BD38B5062B5D
:104C300001DC002032BD1400062901D0122011E051
:104C400003001A7958790006000C02439978D87845
:104C50000006000C014318785D782D062D0C2843C2
:104C600002F06AFDE070042020700F216170A070D6
:104C7000012020711720C6E610B5062B01DC0020AC
:104C800010BD1400042901D012200CE08178C278F4
:104C90001206120C1143027843781B061B0C1A43B0
:104CA000100002F04DFDE070042020700F216170B3
:104CB000A0700120207118206071FD20FDF7DCFE3E
:104CC00078B585B00D001400062B01DC00203DE016
:104CD0000600B079012801D1022204E0022801D1A6
:104CE000102200E00022F11D01A801F0DEFCB079E5
:104CF000012801D1092004E0022801D1172000E099
:104D00000720854201D0122013E032797079000625
:104D1000000C0243B178F0780006000C01433078B3
:104D200073781B061B0C184301AB0093B37902F098
:104D30000BFDE070042020700F216170A070012035
:104D4000207119206071FD20A071072006B070BD90
:104D500038B5062B01DC002032BD1400062901D035
:104D6000122011E003001A7958790006000C024362
:104D70009978D8780006000C014318785D782D06E4
:104D80002D0C284302F0F4FCE070042020700F2169
:104D90006170A070012020711A2034E6F8B5C0B00F
:104DA000062B01DC00202DE000250AE06B00C41C6E
:104DB000E618347877783F063F0C3C436E46F45251
:104DC0006D1C83789D42F1DB14005A00D21C914285
:104DD00001D0122009E0037841780906090C0B4341
:104DE0006A468178180002F0C7FCE0700420207049
:104DF0000F216170A070012020711B206071FD20C7
:104E0000A071072041B0F0BD38B5062B01DC0020B1
:104E100032BD14000279521D914201D012200EE0E1
:104E20008178C2781206120C114305784278120676
:104E3000120C1543431D0279280002F0A1FCE0701A
:104E4000042020700F216170A070012020711C20AF
:104E5000D9E538B5072B01DA002032BD0300140074
:104E60009879C01D814201D0122013E01A79587937
:104E70000006000C02439978D8780006000C014324
:104E800018785D782D062D0C2843DD1D00959B7943
:104E900002F07AFCE070042020700F216170A07095
:104EA000012020711D20AEE538B5072B01DA002066
:104EB00032BD030014009879C01D814201D0122038
:104EC00013E01A7958790006000C02439978D878D3
:104ED0000006000C014318785D782D062D0C284340
:104EE000DD1D00959B7902F059FCE07004202070D4
:104EF0000F216170A070012020711E2083E538B55C
:104F0000072B01DA002032BD030014009879C01D80
:104F1000814201D0122013E01A7958790006000C62
:104F200002439978D8780006000C014318785D7820
:104F30002D062D0C2843DD1D00959B7902F038FCD1
:104F4000E070042020700F216170A070012020719A
:104F50001F2058E538B5062B01DC002032BD1400B7
:104F6000062901D0122011E003001A7958790006B1
:104F7000000C02439978D8780006000C0143187899
:104F80005D782D062D0C284302F01CFCE0700420F7
:104F900020700F216170A07001202071202032E567
:104FA00038B5062B01DC002032BD14000279521DF9
:104FB000914201D012200EE08178C2781206120CC4
:104FC0001143057842781206120C1543431D0279ED
:104FD000280002F0FBFBE070042020700F216170BC
:104FE000A0700120207121200DE510B5062B01DCF9
:104FF000002010BD1400042901D012200CE081789B
:10500000C2781206120C1143027843781B061B0C5F
:105010001A43100002F0DEFBE070042020700F2124
:105020006170A0700120207122206071FD20FDF7C9
:1050300023FD38B5062B01DC002032BD14000279B7
:10504000521D914201D012200EE08178C2781206E2
:10505000120C1143057842781206120C1543431DB9
:105060000279280002F0BAFBA071042020700E2102
:105070006170A0700120E07023202071FD2060711C
:10508000072032BD38B5062B01DC002032BD1400EC
:105090000279521D914201D012200EE08178C2782F
:1050A0001206120C1143057842781206120C1543B1
:1050B000431D0279280002F095FBA07104202070A6
:1050C0000E216170A0700120E0702420D5E710B59A
:1050D000062B01DC002010BD1400022901D0122093
:1050E00007E0017842781206120C1143080002F022
:1050F0007DFBA071042020700E216170A070012042
:10510000E07025202071FD20FDF743F83EB5062B09
:1051100001DC00203EBD14008279D21D914201D0F5
:10512000122012E08178C2781206120C1143057821
:1051300042781206120C1543C21D01928279009228
:1051400043790279280002F055FBA07104202070F9
:105150000E216170A0700120E07026202071FD20DA
:10516000607107203EBD10B5062B01DC002010BD8C
:105170001400022901D0122007E0017842781206BB
:10518000120C1143080002F043FBA07104202070B0
:105190000E216170A0700120E07027202071FD2099
:1051A000FCF7F7FF10B5062B01DC002010BD140042
:1051B000052901D012200DE002009178D078000678
:1051C000000C0143107853781B061B0C184312790E
:1051D00002F024FBA071042020700E216170A070E9
:1051E0000120E07028202071FD20FCF7D2FF7CB563
:1051F000062B01DC002076BD03001400187A09306C
:10520000814201D012201BE09D79D8790006000C64
:1052100005431A7958790006000C02439978D8782A
:105220000006000C014318785E783606360C3043D1
:105230001E00093601961B7A00932B0002F0F2FA49
:10524000A071042020700E216170A0700120E07018
:1052500029202071FD206071072076BDF0B5C3B014
:105260001E0000236D46AB60062E33DD14000629B8
:1052700002D01220A0713FE0027941790906090CA1
:105280000A438178C3781B061B0C194303784778BF
:105290003F063F0C3B43180003AB019302AB009366
:1052A0009B1C02F0CDFAA071092E13DB68464089E1
:1052B000E071000A20720B2E0CDB684600896072D8
:1052C000000AA072607AA17A0906090C08430B3023
:1052D000864201D200201DE0627AA07A0006000C0E
:1052E000024303A920000B3001F0DFF9637AA07AB2
:1052F0000006000C03435B1D042020700E2060702C
:10530000D81CA0700120E0702A202071FD2060715F
:105310009B1D98B243B0F0BDF8B584B0062B01DCFC
:10532000002037E003001400D87A0C30814201D00D
:10533000122022E05D7A987A0006000C0543DE799F
:10534000187A0006000C06431A7958790006000CFA
:1053500002439978D8780006000C014318785F78EA
:105360003F063F0C38431F000C370397DF7A029744
:10537000019500969B7902F08DFAA07104202070AF
:105380000E216170A0700120E0702C202071FD20A2
:105390006071072005B0F0BD10B5062B01DC0020C0
:1053A00010BD1400032901D0122008E002784178D2
:1053B0000906090C0A438178100002F07CFAA071FA
:1053C000042020700E216170A0700120E0702D205B
:1053D0002071FD20FCF7DDFE10B5062B01DC00205E
:1053E00010BD1400052901D012200DE002009178B3
:1053F000D0780006000C0143107853781B061B0C74
:105400001843127902F05DFAA071042020700E2179
:105410006170A0700120E0702E202071FD20FCF74B
:10542000B8FEF8B5062B01DC0020F2BD14000A29F5
:1054300001D012201CE0067A417A0906090C0E43BD
:105440008379C1790906090C0B4302794179090670
:10545000090C0A438178C5782D062D0C294305785F
:1054600047783F063F0C3D432800009602F02DFA96
:10547000E070042020700F216170A0700120207165
:1054800081206071FD20A0710720F2BDF8B586B0C3
:10549000062B01DC002045E01400102901D0122069
:1054A00033E001000A7B487B0006000C02438D7A42
:1054B000C87A0006000C05430E7A487A0006000CF4
:1054C00006438B79C8790006000C034308794F79AD
:1054D0003F063F0C38436F46F8828878CF783F0606
:1054E0003F0C38436F46B88208784F783F063F0C30
:1054F0003843CF7B0497897B0391029201950096F4
:105500006946CA8A898A01F0E5FAA07104202070F0
:105510000E216170A0700120E07082202071FD20BA
:105520006071072007B0F0BD70B5062B01DC0020CC
:1055300070BD1400082901D0122016E08379C179CA
:105540000906090C0B43027941790906090C0A4343
:105550008178C5782D062D0C2943057846783606C6
:10556000360C3543280001F0F7FCA07104202070B0
:105570000E216170A0700120E07000202071FE20DB
:105580006071072070BD38B5062B01DC002032BDEC
:105590001400062901D0122011E003001A7958796D
:1055A0000006000C02439978D8780006000C0143ED
:1055B00018785D782D062D0C284301F0D1FCA071E0
:1055C000042020700E216170A0700120E070207115
:1055D000FE2054E510B5062B01DC002010BD1400A0
:1055E000052901D012200DE002009178D078000644
:1055F000000C0143107853781B061B0C18431279DA
:1056000001F0B2FCA071042020700E216170A07026
:105610000120E07002202071FE20FCF7BAFD10B5D9
:10562000062B01DC002010BD1400012901D012203E
:1056300002E0007801F09CFCA071042020700E2193
:105640006170A0700120E07003202071FE20FCF743
:10565000A0FD38B584B00020039002906D462880EC
:105660000190152B2ADB12251400002901D0A57109
:1056700019E001AB6A4602A903A801F088FCA071F9
:10568000E11D039801F0ACFC21000B31029801F000
:10569000A7FC68460088E073000A207421001131DD
:1056A000019801F09DFC042020700E216170A5700E
:1056B0000121E1702071FE206071152005B030BD20
:1056C00000B5C1B06B46D8701971090A59719A7149
:1056D0000420187005215970987000220DE000B563
:1056E000C1B06B46D8701971090A59719A710420BA
:1056F000187008215970987001220721684602F03D
:10570000C3FB41B000BD18B5C1B06C46E07021715B
:10571000090A6171A271E3711B0A237244A800880F
:105720006072000AA072042020700C2060700820B3
:10573000A07002220B21C9E000B5C1B06946C87053
:105740000420087010204870012088700522042170
:10575000D4E7F0B5C1B00B0000216C46E070002525
:1057600006000CE0A80022181F5A17713F0A577153
:105770009F1C385A9071000AD071091D6D1CB542EA
:10578000F0DB0420207013206070491CA1700622F9
:10579000CCE200B5C1B06A46D0701171090A5171EE
:1057A00004201070302050700320907007220621D2
:1057B000A4E700B5C1B06946487104200870FF2015
:1057C0004870032088700120C870002008710822EA
:1057D000062193E7F6B5C1B01E004E9D4F9F6C4663
:1057E0006071A11D419801F0FBFB21000A31429834
:1057F00001F0F6FB21000E31300001F0F1FB210039
:105800001231489801F0ECFB21001631499801F063
:10581000E7FB21001A314A9801F0E2FB21001E311A
:105820004B9801F0DDFB210022314C9801F0D8FBB0
:10583000210026314D9801F0D3FB2A2025542A005F
:10584000390020002B3000F030FF04202070FF20B2
:1058500060702835A5700320E070002020710022C0
:10586000D243E9B2C91C89B2684600F0D3FD18B52D
:10587000C1B0030010006C466371A171E11D01F01D
:10588000AFFB04202070FF2161700821A170E0703F
:10589000002020710022D2430B2117E018B5C1B0BF
:1058A0000B0011006C466071A3710622E01D00F030
:1058B000FCFE04202070FF2060700A20A0700520EC
:1058C000E070002020710022D2430D21684602F0D2
:1058D000DBFA42B010BD30B5C1B00D0011006C460E
:1058E0006071A5712A00E01D00F0DFFE0420207029
:1058F000FF2060702D1DA5700620E0700020207133
:10590000002228E100B5C1B0042069460870FF22DA
:105910004A7002228A700022CA7008710922052189
:10592000ECE600B5C1B06B465871000A9871D971A8
:105930001A7204201870FF215970062199700121F4
:10594000D97018710A220921D8E600B5C1B069469C
:105950004871000A887104200870FF224A7088701C
:105960000222CA7008710B22C7E600B5C1B06946B1
:105970004871000A887104200870FF224A708870FC
:105980000322CA7008710C22B7E600B5C1B004202A
:1059900069460870FF224A7002228A70C870087136
:1059A0000D220521AAE600B5C1B0042069460870A1
:1059B000FF224A7002228A700522CA7008710E22E4
:1059C00005219BE678B5C1B00E00150019006C46A4
:1059D0006071A671E5712000083000F066FE0420B9
:1059E0002070FF2161706D1DA5700722E27020718B
:1059F0000F226DE100B5C1B069464871000A887197
:105A000004200870FF224A7088700822CA7008714A
:105A1000102272E618B5C1B0020008006C4662712F
:105A2000120AA271E11D01F0DBFA04202070FF21AF
:105A300061700821A1700921E170207136220B21CB
:105A400044E700B5C1B06A465071000A9071D17147
:105A500004201070FF215170052191700A21D1702E
:105A600010713722082149E600B5C1B06A4650716D
:105A7000000A9071D171090A117204201070FF2080
:105A80005070062090700020D070082010711122F4
:105A9000092133E630B5C1B00D0011006C466071CC
:105AA000000AA071E5712A002000083000F0FDFD19
:105AB00004202070FF2060706D1DA5700120E07033
:105AC00008202071122247E018B5C1B06C46607101
:105AD000000AA071E1712272120A6272A3721B0A9B
:105AE000E37244A800882073000A607345A8008808
:105AF000A073000AE07346A800882074000A60744E
:105B000004202070FF2060700F20A0700220E07041
:105B10000820207113221221D8E630B5C1B01D0033
:105B2000449B6C466071000AA071E1712272120AF6
:105B30006272A5722A00190020000B3000F0B5FD3A
:105B400004202070FF2060700835A5700A20E070E6
:105B5000082020710122D243E9B2C91C89B26846EB
:105B600002F092F941B030BDF0B5C1B006000D00B1
:105B70001F00469B3A0002F070FA002866D16C467E
:105B80006671360AA671E5712D0A25726072A072DF
:105B90003D00469E57E0F52002E0F628FBDA28009B
:105BA000E072000A2073E27A207B0006000C0243B8
:105BB000607AA17A0906090C0843311820000D30DB
:105BC00000F073FD04202070FF206070E07A217BDC
:105BD0000906090C08430A30A0700120E0700C206F
:105BE0002071E07A217B0906090C08432D1A28044C
:105BF0000AD0607AA17A0906090C084380210902BB
:105C000001436172090AA1721422A178C91C89B2E8
:105C1000684602F039F9607AA17A0906090C08434E
:105C20004004400C6072000AA072607AA17A0906F2
:105C3000090C0843E17A227B1206120C114340182A
:105C40006072000AA072A8B20028A6D141B0F0BDCF
:105C500000B5C1B069464871000A88710420087017
:105C6000FF224A7088700220C8700C20087115222B
:105C700043E500B5C1B06A465071000A9071D17118
:105C8000090A117204201070FF20507006209070D5
:105C90000320D0700C201071162209212EE578B552
:105CA000C1B00E00150019006C466071000AA071A9
:105CB000E67125722000093000F0F7FC0420207006
:105CC000FF216170AD1DA570E0700C2020711722BE
:105CD000E9B2C91C89B2684602F0D6F842B070BD7C
:105CE000F0B5C1B06C466071030AA371E171002583
:105CF0000E00130000210CE0A80022181F5A177292
:105D00003F0A57729F1C385A9072000AD072091DC0
:105D10006D1CB542F0DB04202070FF206070491D2F
:105D2000A1700520E0700C2020711822C9B2C91C96
:105D300089B2684602F0A8F841B0F0BD78B5C1B0AC
:105D40000E00150019006C466071000AA071E67122
:105D500025722000093000F0A8FC04202070FF20EC
:105D60006070AD1DA5700620E0700C202071192216
:105D7000AEE730B5C1B00D0011006C466071000A8D
:105D8000A071E5712A002000083000F08EFC04208C
:105D90002070FF2060706D1DA5700720E0700C2042
:105DA00020711A22D8E630B5C1B00D0011006C4642
:105DB0006071000AA071E5712A002000083000F02F
:105DC00074FC04202070FF2060706D1DA5700820F9
:105DD000E0700C2020711B22BEE630B5C1B00D0072
:105DE00011006C466071000AA071E5712A00200064
:105DF000083000F05AFC04202070FF2060706D1DF8
:105E0000A5700920E0700C2020711C22A4E678B552
:105E1000C1B00E00150019006C466071000AA07137
:105E2000E67125722000093000F03FFC042020704C
:105E3000FF206070AD1DA5700A20E0700C2020715D
:105E40001D2245E730B5C1B01D00449B6C46607112
:105E5000000AA071E171090A21726272120AA2722B
:105E6000E5722A00190020000C3000F01EFC04200E
:105E70002070FF2060700935A5700C20E070207143
:105E80001F2269E600B5C1B069464871000A8871F1
:105E900004200870FF224A7088700D20C8700C2002
:105EA00008712022FFF729FC78B5C1B00E0015005B
:105EB00019006C466071000AA071E671360A2672FC
:105EC000657220000A3000F0F0FB04202070FF20F3
:105ED0006070ED1DA5700E20E0700C202071212255
:105EE000F6E6F1B5C2B00F0015001E0042A800880A
:105EF00002F0A9F8002820D16C4642A80088607101
:105F0000000AA071E7713F0A277265722A0031000A
:105F100020000A3000F0C9FB04202070FF206070D0
:105F2000ED1DA5700F20E0700C2020712222E9B237
:105F3000C91C89B2684601F0A7FF43B0F0BD00B5A7
:105F4000C1B06A465071000A9071D171042010707E
:105F5000FF205070052090701020D0700C20107120
:105F600023220821FFF7CAFB18B5C1B06C46607147
:105F7000000AA071E1712272120A6272A3720420F7
:105F80002070FF2060700820A0701120E0700C20AD
:105F9000207124220B2199E478B5C1B00E001500C0
:105FA00019006C466071000AA071E671360A26720B
:105FB000657220000A3000F078FB04202070FF207A
:105FC0006070ED1DA5701220E0700C20207125225C
:105FD0007EE678B5C1B00E00150019006C46607100
:105FE000000AA071E671360A2672657220000A3036
:105FF00000F05BFB04202070FF206070ED1DA57099
:106000001320E0700C202071262261E600B5C1B09B
:106010006B465871000A9871D971090A19725A723F
:10602000120A9A7204201870FF2058700820987085
:106030001420D8700C20187127220B21FFF75EFB6B
:1060400078B5C1B00B0000216C466071000AA071E8
:10605000E371002007E045006619555B35722D0A93
:106060007572891C401C9842F5DB04202070FF20CB
:106070006070491DA1701520E0700C20207128224D
:10608000C9B226E630B5C1B005000C0001F0EFFF43
:10609000002814D1684645712D0A8571C471240AFF
:1060A000047204210170FF214170062181701621C4
:1060B000C1700C2101712922092101F0E5FE41B0D6
:1060C00030BD00B5C1B069464871000A887104202E
:1060D0000870FF224A7088701720C8700C20087161
:1060E0002A22FFF70AFB30B5C1B01D00449B6C4665
:1060F0006071000AA071E171090A21726272120ACC
:10610000A272E5722A00190020000C3000F0CDFACE
:1061100004202070FF2060700935A5701820E07001
:106120000C2020712B2217E578B5C1B01E00469BCC
:106130004A9D6C4620716171090AA171E271267253
:10614000062219002000093000F0AFFA47A80088A5
:10615000E073000A207448A800886074000AA074E4
:1061600049A80088E074000A207565750420207035
:106170003E2060701320A0700120E0702C221621B8
:10618000A9E5F0B5C3B0002502AA107100276A4640
:106190001070019124E0001D4619019814217943E3
:1061A0004418207870706078B0700622A11CF01C32
:1061B00000F07BFA207A7072227AE16830000A30AF
:1061C00000F073FA207A010009316D1801222100D4
:1061D000103133000A33181800F067FA6D1C7F1C69
:1061E00068460078874202A8D5DB042202703E226E
:1061F0004270A91C81700222C2702D2207E118B5DD
:10620000C1B06C4620716171090AA171E271120A74
:10621000227263721B0AA37244A80088E072000A0B
:106220002073042020703E2060700A20A07003209C
:10623000E0702E22FFF749FB18B5C1B00B0011002A
:106240006C46207163711B0AA3710822E01D00F0E7
:106250002CFA042020703E2161700C21A170E070A6
:106260002F220F21FFF732FB30B5C1B015006C466D
:106270002071000A60710822A01D00F016FAA573B3
:106280002D0AE573042020703E2060700D20A07060
:106290000520E0703022102161E418B5C1B06C46D1
:1062A0002071000A6071A171090AE1712272120A5B
:1062B0006272A3721B0AE37244A800882073000A6A
:1062C0006073042020703E2060700B20A0700720B7
:1062D000E07031220E21FFF7F9FA18B5C1B06C4613
:1062E00020714022601D00F0E0F9042020703E2063
:1062F00060704220A0700820E07032224521FFF734
:10630000E5FA18B5C1B06C4620712022601D00F07E
:10631000CCF9042020703E2060702220A07009205B
:10632000E07033222521FFF7D1FAF3B5C1B04899C7
:10633000499F4A9E4E9D6C46207142A8008860711C
:10634000000AA071E271237206222000093000F0D9
:10635000ACF90622390020000F3000F0A6F9062221
:1063600031002000153000F0A0F94BA80088E0763D
:10637000000A20774CA800886077000AA0774DA813
:106380000088E077000A641CE077641E2120255411
:10639000042020703E2060701F20A0700A20E07052
:1063A00034222221684635E0F0B5C3B0002602AAA7
:1063B000107100276A46107001911AE0380102A995
:1063C0000D1801990C18207868716078A871062260
:1063D000A11CE81D00F069F9207A687306222100EB
:1063E000093128000E3000F060F9E07B2875103686
:1063F0007F1C684600788742E0DB02A80422027016
:106400003E224270B11C81700B22C2703522C9B28B
:10641000C91C89B201F038FD43B0F0BD10B501F0E0
:106420008BFE10BDF8B50646002000906946304648
:1064300001F0A0FE050002D0452D26D026E014482C
:106440000721006809024118C97F0227009C09073B
:106450001CD502218B020830C0180C22C06C0B46E0
:1064600001F0E2FE010011D08E8022788A716278FC
:10647000A3781B0213430B81E3782279384612027A
:106480001A434A8101F02EFF00E000252846F8BD9E
:106490006803002070B5084A0021034607241268EB
:1064A0000846240256185D5C3619491CC9B2B577F6
:1064B0000829F7D370BD00006803002010B501F073
:1064C00025FF002010BD70B50E461546002403219F
:1064D00001F090FF7F21082807D0012E07D0002E61
:1064E00008D012242970204670BD0224FAE7082043
:1064F0002870F8E7294601F0C1FF0446F3E70C08CD
:1065000002170D01010209090101060209FFFFFF3F
:10651000FFFF0909FFFFFFFF30B50B24039D047047
:10652000054800688030408C088014703020188046
:1065300015202880002030BD680300200F21274A45
:1065400013681B090B404370136819408170D268AF
:1065500042600121224B9A4208D1224A1268224B02
:106560009A4201D1042202E0022200E001220270DC
:106570004278002A00D141701C490988491C8900D1
:106580008160704710B51A4C2100282201F086FF67
:106590000020206010BD70B500230024144AA5001F
:1065A0005351641C0A2CFAD3116050600223C02698
:1065B000F60199004418083CE0252D066519B542FE
:1065C00001D2246854505B1C0A2BF2D3BFF34F8FC7
:1065D000084809490860BFF34F8FFEE71C00904050
:1065E00041A000021C00001044A000F21400104062
:1065F000340000200400FA050CED00E07FB5040033
:106600000D0016006846FFF799FF68460178217073
:1066100041782970807830707FBDF8B504464022FB
:10662000002100F048F80120C04605460120C04680
:1066300007460120C0460646202020708020A0701A
:10664000C02060710420A0722820A0732220E07373
:10665000F720607638463C214843C3210843A076A2
:1066600038460C214843F3210843E0767E20074357
:1066700027770120C046C0214843203460700120A4
:10668000C04606214E43F821304369430843A070B9
:106690000120C046E900C000491B0843E07080208B
:1066A000A071A800E0710020F8BD10B5040001F051
:1066B0000FFF200010BD10B50400080011000200FB
:1066C000200001F013FF200010BD80B501F038FF5D
:1066D00002BD10B5044608220021FFF7ECFF602040
:1066E0002071002010BD704710B5044906220968CA
:1066F0007831FFF7DAFF002010BD000068030020AA
:1067000010B50C460146204601F02AFF002801D0B2
:106710007E21217010BD704770B505460024407879
:106720002646022801D0042803D10120C0460028B3
:106730000DD0084839210068490103192A5D5B180A
:10674000641CE4B29A71082CF7D3304670BD112650
:10675000FBE700006803002010B50C46FB21018018
:106760000120C04601280ED01B201F3040094100E7
:10677000411806484078401A0921C01E01F023FF45
:106780002070002010BDFB20EFE700007C000020FF
:1067900010B501F06FFF002010BD704770B50446C2
:1067A000002501F087FF064601F0A8FF082E01D161
:1067B000082801D00C2070BD0C4E0D4B306806220D
:1067C0002146C018FFF771FF204600F0DBFC0121D5
:1067D0003268000289025618401CF065E01C00F087
:1067E000D1FC0002000A3066284670BD6803002014
:1067F00033070000F0B585B06F460A9E0D9D0C9CD6
:10680000388079803A71052A02D3122005B0F0BD94
:10681000FB713E723846062209300B99FFF745FF9F
:106820006846447185710079012804D0042802D09B
:10683000032DEAD807E06946097A012901D0002929
:10684000E3D1012810D0684601880F4A0846203855
:106850009042DAD2684640882028D6D3012292039B
:106860009042D2D88142D0D86846C079002805D05D
:10687000012803D0022801D00328C6D16007C4D064
:10688000684601F05FFFC1E7E13F000010B501F08D
:10689000FFFF10BD10B50A461F2801D9122010BDF8
:1068A0000146104602F002F810BD10B50A461F2836
:1068B00001D9122010BD0146104602F033F810BD78
:1068C0001CB504460D480168232040010818407992
:1068D000012801D0032807D1684602F051F8684624
:1068E00002F05CF8002803D0012C03D0002C01D06A
:1068F00012201CBD204602F05DF81CBD680300207C
:1069000080B502F069F902BD80B502F0A2F902BDBE
:1069100080B502F0AAF902BD80B502F0C7F902BD48
:1069200080B502F0C7F902BD80B502F0CDF902BD15
:1069300080B502F0DDF902BD80B502F0EDF902BDCF
:1069400080B502F0F0F902BD80B502F0F0F902BDA9
:1069500080B502F0FFF901BD80B502F02DFA02BD4D
:1069600080B502F033FD02BD1FB56C46A48C0394C4
:10697000089C02946C46A48B01946C46248B009472
:1069800002F0B0FD1FBD1FB508AC247802946C4620
:10699000247F0194069C009402F0A8FE04B010BD70
:1069A00080B502F063FF02BD80B502F081FF02BD39
:1069B00018B587B0109C06940FAC247805946C46EB
:1069C000248F04946C46A48E03946C46248E029407
:1069D0006C46A48D01946C46248D009402F0ACFFAB
:1069E00008B010BD1CB56C46247D01946C46247C17
:1069F000009402F0BBFF16BD1FB5099C039408ACC0
:106A0000247802946C46247F01946C46247E009482
:106A100002F0C1FF04B010BD18B587B010AC2488D7
:106A200006946C46A48F05946C46248F04946C469F
:106A3000A48E03946C46248E02946C46A48D01941B
:106A40000AAC2478009402F0BFFF08B010BD1FB557
:106A50006C46248C02946C46A48B01946C46248B67
:106A6000009402F0DEFF04B010BD80B502F0EAFF32
:106A700002BD80B502F0EAFF02BD80B502F0EAFF78
:106A800002BD18B587B010AC248806946C46A48F5C
:106A900005946C46248F04946C46A48E03946C4633
:106AA000248E02946C46A48D01940AAC2478009440
:106AB00002F0D4FF08B010BD1CB56C46247D0194D3
:106AC0006C46247C009402F0F3FF16BD80B502F002
:106AD000FDFF02BD18B585B00CAC247804940BAC56
:106AE000247803946C46248D02946C46A48C019403
:106AF0006C46248C009402F0EEFF06B010BD10B579
:106B000088B011AC2488079410AC248806946C4695
:106B1000A48F05946C46248F04946C46A48E039431
:106B20006C46248E02940BAC247801940A9C009449
:106B300002F0E6FF08B010BD80B503F02AF802BDF0
:106B40001FB56C46248C02946C46A48B01946C4651
:106B5000248B009403F021F804B010BD1CB56C46E2
:106B6000247C009403F02AF816BD80B503F052F897
:106B700002BD80B503F074F802BD80B503F07EF865
:106B800002BD80B503F07EF801BD80B503F09EF82C
:106B900002BD80B503F014F901BD80B503F00EFA13
:106BA00001BD80B503F02EFA02BD80B503F032FAC4
:106BB00001BD80B503F050FA01BD80B503F058FA6D
:106BC00002BD80B503F098FA01BD80B503F0BBFAB1
:106BD00002BD80B503F0EBFA01BD80B503F0F0FA19
:106BE00002BD80B503F0FCFA01BD80B503F004FBE3
:106BF00002BD80B503F00BFB02BD80B503F017FBAF
:106C000002BD80B503F017FB02BD80B503F021FB88
:106C100002BD80B503F022FB01BD80B503F04AFB45
:106C200002BD80B503F0DCFB02BD80B503F014FCAF
:106C300002BD80B503F03AFC02BD80B503F090FCC4
:106C400002BD80B503F094FC02BD80B503F09AFC50
:106C500002BD80B503F0B4FC02BD80B503F0EEFCCC
:106C600001BD80B503F09CFD01BD80B503F0B4FD0E
:106C700002BD80B503F0CCFD01BD80B503F0E0FDA1
:106C800002BD80B503F0FEFD01BD80B503F034FE0A
:106C900001BD80B503F04EFE01BD80B503F084FE5A
:106CA00002BD80B503F09AFE01BD80B503F0ACFED5
:106CB00001BD80B503F0C0FE01BD80B503F0D4FE78
:106CC00002BD80B503F0F2FE01BD80B503F022FFE6
:106CD00001BD80B503F038FF01BD80B503F082FF30
:106CE00002BD80B503F0AAFF01BD80B503F0D2FF5D
:106CF00002BD80B503F0F6FF02BD10B504461F20AB
:106D0000C0462070002010BD10B504F02FF810BD53
:106D10007CB504460D46012803D0002C01D012207A
:106D20007CBD084600F02EFA000220430090E81CCB
:106D300000F028FA0002000A0190684604F02AF8E0
:106D40007CBD1CB5012803D0002801D012201CBD39
:106D50006A46107000A806220130FFF7A6FC6846BC
:106D600004F050F81CBD10B504F078F810BD704761
:106D7000044910B5884201D9022010BD04F088F8FA
:106D800010BD0000FF0E000010B50023FFF70CFE41
:106D900010BD10B504F0D4F810BD0A4610B5014678
:106DA000002004F0DBF810BD10B5014600224120A0
:106DB00004F0D4F810BD10B504F01EF9002010BD89
:106DC00010B5272801D9122010BD04F025F900289C
:106DD000FAD1054901230A680721090251180A7FDF
:106DE0001A430A7710BD000068030020F8B5154665
:106DF0000E46074625240120C046012800D1FF2465
:106E0000272F03D8A64201D8072D01D91220F8BD9B
:106E10002A463146384604F0A3F90028F7D105493F
:106E200001230A680721090251180A7F1A430A77C9
:106E3000F8BD00006803002010B504F0C7FA002870
:106E400008D105490A680721090251180A7F52082A
:106E500052000A7710BD0000680300200D22D243C3
:106E600002700820087000207047704701490180B7
:106E70000020704757D10000314832490860012096
:106E80003149087000207047FFB583B00F9F109EF6
:106E9000119D1298FFF7EAFF002468468460446061
:106EA00001A8009002AB9B1C01AA921C02A9C01C65
:106EB000FFF732FB032003990870049908700599C5
:106EC0000C7000BF39A021490978405C0699087010
:106ED0000C9804800F20694609890F220A400D99F9
:106EE0000A70694689880906090F0E9A1170694669
:106EF00089880F220A403A7069468988C90B317027
